:03000000020100FA
:03001B0002005090
:0E005000C28EC28F16758D3C758BB0D28E326B
:0C01000075891175A8885100910080FEDF
:1004000075701E75711E75721E75731E7574287554
:1004100075147576287577287870758D3C758BB056
:10042000D28E919CB600FBC28E08758D3C758BB048
:10043000D28E91BFB600FBC28E08758D3C758BB015
:10044000D28E91E2B600FBC28E08758D3C758BB0E2
:10045000D28E91BFB600FBC28E08758D3C758BB0F5
:10046000D28EB105B600FBC28E08758D3C758BB07F
:10047000D28EC280B600FDC28E08758D3C758BB0E1
:10048000D28EB105B600FBC28E08758D3C758BB05F
:10049000D28EB128B600FBC28E020400758CEE75B8
:1004A0008A3FD287D28C308DFDC28CC28DC28775B7
:1004B0008CEE758A3FD28C308DFDC28CC28D227538
:1004C0008CF0758A30D287D28C308DFDC28CC28D73
:1004D000C287758CF0758A30D28C308DFDC28CC28B
:1004E0008D22758CF2758AB7D287D28C308DFDC281
:1004F0008CC28DC287758CF2758AB7D28C308DFD17
:10050000C28CC28D22758CF5758A72D287D28C30DE
:100510008DFDC28CC28DC287758CF5758A72D28CA6
:10052000308DFDC28CC28D22758CF4758A2AD287DB
:10053000D28C308DFDC28CC28DC287758CF4758AC9
:0C0540002AD28C308DFDC28CC28D22228C
:1002000075A000759000518B518B5120518B518BF3
:10021000518B7482515D518B900300517D518B2223
:1002200075A038C280C281D282518BC282518B7537
:10023000A00CC280C281D282518BC282518B75A028
:1002400001C280C281D282518BC282518B75A006BD
:10025000C280C281D282518BC282518B22F5A0C250
:1002600080C281D282518BC282518B22F5A0D28072
:10027000C281D282518BC282518B518B22C0E0E469
:10028000936005516CA380F7D0E022C000C00178D4
:0C0290000179FFD9FED8FAD001D000227D
:0D030000524F4C4C494E472054494D45008A
:00000001FF
