:100E74005072657373204120666F72204163636F03
:100E8400756E7420646973706C617920616E64207E
:100E94005720666F72207769746864726177696E2F
:100EA4006720636173680D0A0048656C6C6F2C20C1
:100EB400506C6561736520656E746572204163636F
:100EC4006F756E74204E756D6265720D0A00416314
:100ED400636F756E7420486F6C6465723A20000D00
:100EE4000A004163636F756E742042616C616E63C6
:100EF400653A20004E6F2073756368206163636FE9
:100F0400756E742C20706C6561736520656E7465F4
:100F1400722076616C69642064657461696C730D18
:100F24000A00576974686472617720737461746528
:100F34002C20656E746572206163636F756E742016
:100F44006E756D6265720D0A00456E74657220419E
:100F54006D6F756E742C20696E2068756E64726591
:100F640064730D0A00496E73756666696369656E1C
:100F7400742042616C616E63650D0A0052656D6197
:100F8400696E696E672042616C616E63653A200028
:100F9400353030204E6F7465733A20002C20313088
:100FA40030204E6F7465733A2000496E76616C6927
:100FB4006420496E7075740D0A00506C6561736528
:100FC40020656E74657220636F7272656374206944
:100FD4006E7075740D0A0053697461004769746119
:100FE40000000000000000000000000000000000FD
:090FF400000000000000000000F4
:10116200C101C100060E00000000000006080000D8
:101172000000000003170000000314000000051A1D
:05118200000000000068
:10118800758920758DF3438780759850D28ED2ACBF
:03119800D2AF22B1
:080FFD007B007A00792FAF3C64
:101005008E538F548B558A5689577C277D10120E27
:101015001FEF2430120DD9AE53AF547C277D10122B
:101025000E1F7E037FE8CFCDCFCECCCE120E1FEFA5
:101035002430AB55AA56A957900001120DEBAE53BB
:10104500AF547C037DE8120E1F7E007F64CFCDCFA9
:10105500CECCCE120E1FEF2430AB55AA56A9579011
:101065000002120DEBAE53AF547C007D64120E1FCF
:101075007E007F0ACFCDCFCECCCE120E1FEF24300F
:10108500AB55AA56A957900003120DEBAE53AF54BA
:101095007C007D0A120E1FED2430AB55AA56A957C8
:0610A500900004020DEBB7
:0811B5008F993001FDC20122F7
:061137007BFF7A0E79E354
:10113D008B538A548955AB53AA54A955120DC060CF
:10114D00130555E5557002055414F9120DC0FF1223
:05115D0011B580E22243
:0911AB00E4FF3000FDC200AF9921
:0111B4002218
:0300230002119B2C
:10119B00309905C299D20132309804C298D20032EC
:10080000E4F521F522F523F52478257C00FD7BFF16
:100810007A0F79DBFE7F05120D9A782A7C007D0025
:100820007BFF7A0F79E07E007F05120D9A782F7C8E
:10083000007D007BFF7A0F79E57E007F06120D9A1E
:1008400078357C007D007BFF7A0F79EB7E007F0698
:10085000120D9A753B27753C10753D27753E10E4C7
:10086000F53FF540F541F542F543F544F545F546CC
:1008700078477C00FD7BFF7A0F79F1FE7F06120D31
:100880009A784D7C007D007BFF7A0F79F77E007FA0
:1008900006120D9A75900F1211887BFF7A0E7974EB
:1008A00012113D1211AB8F21E52124897003020939
:1008B0003224166003020CBE7BFF7A0E79AD121152
:1008C0003D1211AB8F22E52224CE60320460030278
:1008D0000CB2AE3B120FFD7BFF7A0E79D212113DA6
:1008E0007B007A00792512113D1211377BFF7A0EB9
:1008F00079E612113D7B007A00792F020C9C7B0077
:100900007A007935AF3EAE3D1210057BFF7A0E7945
:10091000D212113D7B007A00792A12113D12113753
:100920007BFF7A0E79E612113D7B007A0079350261
:100930000C9C7BFF7A0F792612113D1211AB8F228E
:10094000E52224CE7003020AF0046003020CB27B9D
:10095000007A00792FAF3CAE3B1210057BFF7A0E78
:1009600079D212113D7B007A00792512113D1211C6
:10097000377BFF7A0E79E612113D7B007A00792FE2
:1009800012113D1211371211377BFF7A0F794D1278
:10099000113D1211AB8F231211AB8F24E52364306C
:1009A0006039E52364316033E5236432602DE5234B
:1009B00064336027E52364346021E5236435601BDC
:1009C000E52364366015E5236437600FE52364385A
:1009D0006009E52364396003020CAAE524643060F1
:1009E00039E52464316033E5246432602DE5246404
:1009F000336027E52464346021E5246435601BE519
:100A00002464366015E5246437600FE5246438609B
:100A100009E52464396003020CAAE52424D0F540DA
:100A2000E434FFF53FFEAF407C007D64120E0D8E76
:100A3000418F42E52324D0F540E434FFF53FFEAF7B
:100A4000407C037DE8120E0DEF2542F542EE354164
:100A5000F541FEAF427C017DF4120E1F8E438F44A0
:100A6000AE41AF427C017DF4120E1F8C458D46AE27
:100A700045AF467C007D64120E1F8E458F46D3E540
:100A800042953CE541953B4003020C2AC3E53C9569
:100A900042F53CE53B9541F53BFE120FFD7B007AAC
:100AA000007947AF44AE431210057B007A00794DC0
:100AB000AF46AE451210057BFF7A0F798012113DCB
:100AC0007B007A00792F12113D1211377BFF7A0FCC
:100AD000799412113D7B007A00794712113D7BFF1A
:100AE0007A0F79A012113D7B007A00794D020C9C9F
:100AF0007B007A007935AF3EAE3D1210057BFF7A60
:100B00000E79D212113D7B007A00792A12113D1222
:100B100011377BFF7A0E79E612113D7B007A00795E
:100B20003512113D1211371211377BFF7A0F794DB3
:100B300012113D1211AB8F231211AB8F24E52364E8
:100B4000306039E52364316033E5236432602DE59C
:100B50002364336027E52364346021E52364356032
:100B60001BE52364366015E5236437600FE52364D5
:100B7000386009E52364396003020CAAE524643077
:100B80006039E52464316033E5246432602DE52466
:100B900064336027E52464346021E5246435601BF8
:100BA000E52464366015E5246437600FE524643875
:100BB0006009E52464396003020CAAE52424D0F519
:100BC00040E434FFF53FFEAF407C007D64120E0D23
:100BD0008E418F42E52324D0F540E434FFF53FFEFB
:100BE000AF407C037DE8120E0DEF2542F542EE3555
:100BF00041F541FEAF427C017DF4120E1F8E438F02
:100C000044AE41AF427C017DF4120E1F8C458D46EF
:100C1000AE45AF467C007D64120E1F8E458F46D3D5
:100C2000E542953EE541953D40097BFF7A0F7969A4
:100C3000020CB8C3E53E9542F53EE53D9541F53DD4
:100C40007B007A007935AF3EFE1210057B007A00FA
:100C50007947AF44AE431210057B007A00794DAF5F
:100C600046AE451210057BFF7A0F798012113D7B4D
:100C7000007A00793512113D1211377BFF7A0F7916
:100C80009412113D7B007A00794712113D7BFF7A67
:100C90000F79A012113D7B007A00794D12113D129F
:100CA00011377BFF7A0E79E3800E7BFF7A0F79AEE6
:100CB00080067BFF7A0E79F812113D02089A7BFFBD
:0A0CC0007A0F79BE12113D02089A66
:030000000210AB40
:0C10AB00787FE4F6D8FD7581570210F242
:100CCA00E709F608DFFA8046E709F208DFFA803E0C
:100CDA0088828C83E709F0A3DFFA8032E309F608F9
:100CEA00DFFA8078E309F208DFFA807088828C8361
:100CFA00E309F0A3DFFA806489828A83E0A3F60815
:100D0A00DFFA805889828A83E0A3F208DFFA804CEE
:100D1A0080D280FA80C680D4806980F280338010C5
:100D2A0080A680EA809A80A880DA80E280CA80332E
:100D3A0089828A83ECFAE493A3C8C582C8CCC583A6
:100D4A00CCF0A3C8C582C8CCC583CCDFE9DEE78076
:100D5A000D89828A83E493A3F608DFF9ECFAA9F0F5
:100D6A00EDFB2289828A83ECFAE0A3C8C582C8CC4B
:100D7A00C583CCF0A3C8C582C8CCC583CCDFEADE64
:100D8A00E880DB89828A83E493A3F208DFF980CCC6
:100D9A0088F0EF60010E4E60C388F0ED2402B404BF
:100DAA000050B9F582EB2402B4040050AF23234566
:060DBA008223900D1A7364
:100DC000BB010689828A83E0225002E722BBFE0231
:090DD000E32289828A83E4932264
:100DD900BB010689828A83F0225002F722BBFE01F9
:020DE900F322F3
:100DEB00F8BB010DE58229F582E5833AF583E8F03E
:100DFB00225006E92582C8F622BBFE05E92582C8EA
:020E0B00F222D1
:100E0D00EF8DF0A4A8F0CF8CF0A428CE8DF0A42EF9
:020E1D00FE22B3
:100E1F00BC000BBE0029EF8DF084FFADF022E4CCB7
:100E2F00F875F008EF2FFFEE33FEEC33FCEE9DEC80
:100E3F00984005FCEE9DFE0FD5F0E9E4CEFD22EDC6
:100E4F00F8F5F0EE8420D21CFEADF075F008EF2F10
:100E5F00FFED33FD4007985006D5F0F222C398FD01
:050E6F000FD5F0EA229E
:1010B700020800E493A3F8E493A34003F68001F247
:1010C70008DFF48029E493A3F85407240CC8C3333A
:1010D700C4540F4420C8834004F456800146F6DF09
:1010E700E4800B0102040810204080901162E47E26
:1010F700019360BCA3FF543F30E509541FFEE493FE
:10110700A360010ECF54C025E060A840B8E493A3C4
:10111700FAE493A3F8E493A3C8C582C8CAC583CAEF
:10112700F0A3C8C582C8CAC583CADFE9DEE780BEA7
:011187000067
:00000001FF
